{
    "_format": "hh-sol-artifact-1",
    "contractName": "FundTransfer",
    "sourceName": "contracts/FundTransfer.sol",
    "abi": [
        {
            "anonymous": false,
            "inputs": [
                {
                    "indexed": false,
                    "internalType": "address",
                    "name": "sender",
                    "type": "address"
                },
                {
                    "indexed": false,
                    "internalType": "address",
                    "name": "receiver",
                    "type": "address"
                },
                {
                    "indexed": false,
                    "internalType": "uint256",
                    "name": "amount",
                    "type": "uint256"
                },
                {
                    "indexed": false,
                    "internalType": "string",
                    "name": "narration",
                    "type": "string"
                },
                {
                    "indexed": false,
                    "internalType": "uint256",
                    "name": "sendtime",
                    "type": "uint256"
                }
            ],
            "name": "Send",
            "type": "event"
        },
        {
            "inputs": [],
            "name": "getAllTransfers",
            "outputs": [
                {
                    "components": [
                        {
                            "internalType": "address",
                            "name": "sender",
                            "type": "address"
                        },
                        {
                            "internalType": "address",
                            "name": "receiver",
                            "type": "address"
                        },
                        {
                            "internalType": "uint256",
                            "name": "amount",
                            "type": "uint256"
                        },
                        {
                            "internalType": "string",
                            "name": "narration",
                            "type": "string"
                        },
                        {
                            "internalType": "uint256",
                            "name": "sendtime",
                            "type": "uint256"
                        }
                    ],
                    "internalType": "struct FundTransfer.SendFund[]",
                    "name": "",
                    "type": "tuple[]"
                }
            ],
            "stateMutability": "view",
            "type": "function"
        },
        {
            "inputs": [],
            "name": "getTransferCount",
            "outputs": [
                {
                    "internalType": "uint256",
                    "name": "",
                    "type": "uint256"
                }
            ],
            "stateMutability": "view",
            "type": "function"
        },
        {
            "inputs": [
                {
                    "internalType": "address payable",
                    "name": "receiver",
                    "type": "address"
                },
                {
                    "internalType": "uint256",
                    "name": "amount",
                    "type": "uint256"
                },
                {
                    "internalType": "string",
                    "name": "narration",
                    "type": "string"
                }
            ],
            "name": "storedTxn",
            "outputs": [],
            "stateMutability": "nonpayable",
            "type": "function"
        }
    ],
    "bytecode": "0x608060405234801561001057600080fd5b50610b5e806100206000396000f3fe608060405234801561001057600080fd5b50600436106100415760003560e01c8063040e55f51461004657806354b4aa4a14610064578063a66a7b7914610082575b600080fd5b61004e61009e565b60405161005b91906104b0565b60405180910390f35b61006c6100a7565b60405161007991906106ec565b60405180910390f35b61009c600480360381019061009791906108c1565b610258565b005b60008054905090565b60606001805480602002602001604051908101604052809291908181526020016000905b8282101561024f57838290600052602060002090600502016040518060a00160405290816000820160009054906101000a900473ffffffffffffffffffffffffffffffffffffffff1673ffffffffffffffffffffffffffffffffffffffff1673ffffffffffffffffffffffffffffffffffffffff1681526020016001820160009054906101000a900473ffffffffffffffffffffffffffffffffffffffff1673ffffffffffffffffffffffffffffffffffffffff1673ffffffffffffffffffffffffffffffffffffffff168152602001600282015481526020016003820180546101b49061095f565b80601f01602080910402602001604051908101604052809291908181526020018280546101e09061095f565b801561022d5780601f106102025761010080835404028352916020019161022d565b820191906000526020600020905b81548152906001019060200180831161021057829003601f168201915b50505050508152602001600482015481525050815260200190600101906100cb565b50505050905090565b600160008082825461026a91906109c0565b9250508190555060016040518060a001604052803373ffffffffffffffffffffffffffffffffffffffff1681526020018573ffffffffffffffffffffffffffffffffffffffff16815260200184815260200183815260200142815250908060018154018082558091505060019003906000526020600020906005020160009091909190915060008201518160000160006101000a81548173ffffffffffffffffffffffffffffffffffffffff021916908373ffffffffffffffffffffffffffffffffffffffff16021790555060208201518160010160006101000a81548173ffffffffffffffffffffffffffffffffffffffff021916908373ffffffffffffffffffffffffffffffffffffffff1602179055506040820151816002015560608201518160030190805190602001906103a39291906103f4565b506080820151816004015550507f01e74d977199c2d571c926551e4cca7a7c8385e751728d62e01d507a5f51743733848484426040516103e7959493929190610ace565b60405180910390a1505050565b8280546104009061095f565b90600052602060002090601f0160209004810192826104225760008555610469565b82601f1061043b57805160ff1916838001178555610469565b82800160010185558215610469579182015b8281111561046857825182559160200191906001019061044d565b5b509050610476919061047a565b5090565b5b8082111561049357600081600090555060010161047b565b5090565b6000819050919050565b6104aa81610497565b82525050565b60006020820190506104c560008301846104a1565b92915050565b600081519050919050565b600082825260208201905092915050565b6000819050602082019050919050565b600073ffffffffffffffffffffffffffffffffffffffff82169050919050565b6000610522826104f7565b9050919050565b61053281610517565b82525050565b61054181610497565b82525050565b600081519050919050565b600082825260208201905092915050565b60005b83811015610581578082015181840152602081019050610566565b83811115610590576000848401525b50505050565b6000601f19601f8301169050919050565b60006105b282610547565b6105bc8185610552565b93506105cc818560208601610563565b6105d581610596565b840191505092915050565b600060a0830160008301516105f86000860182610529565b50602083015161060b6020860182610529565b50604083015161061e6040860182610538565b506060830151848203606086015261063682826105a7565b915050608083015161064b6080860182610538565b508091505092915050565b600061066283836105e0565b905092915050565b6000602082019050919050565b6000610682826104cb565b61068c81856104d6565b93508360208202850161069e856104e7565b8060005b858110156106da57848403895281516106bb8582610656565b94506106c68361066a565b925060208a019950506001810190506106a2565b50829750879550505050505092915050565b600060208201905081810360008301526107068184610677565b905092915050565b6000604051905090565b600080fd5b600080fd5b600061072d826104f7565b9050919050565b61073d81610722565b811461074857600080fd5b50565b60008135905061075a81610734565b92915050565b61076981610497565b811461077457600080fd5b50565b60008135905061078681610760565b92915050565b600080fd5b600080fd5b7f4e487b7100000000000000000000000000000000000000000000000000000000600052604160045260246000fd5b6107ce82610596565b810181811067ffffffffffffffff821117156107ed576107ec610796565b5b80604052505050565b600061080061070e565b905061080c82826107c5565b919050565b600067ffffffffffffffff82111561082c5761082b610796565b5b61083582610596565b9050602081019050919050565b82818337600083830152505050565b600061086461085f84610811565b6107f6565b9050828152602081018484840111156108805761087f610791565b5b61088b848285610842565b509392505050565b600082601f8301126108a8576108a761078c565b5b81356108b8848260208601610851565b91505092915050565b6000806000606084860312156108da576108d9610718565b5b60006108e88682870161074b565b93505060206108f986828701610777565b925050604084013567ffffffffffffffff81111561091a5761091961071d565b5b61092686828701610893565b9150509250925092565b7f4e487b7100000000000000000000000000000000000000000000000000000000600052602260045260246000fd5b6000600282049050600182168061097757607f821691505b6020821081141561098b5761098a610930565b5b50919050565b7f4e487b7100000000000000000000000000000000000000000000000000000000600052601160045260246000fd5b60006109cb82610497565b91506109d683610497565b9250827fffffffffffffffffffffffffffffffffffffffffffffffffffffffffffffffff03821115610a0b57610a0a610991565b5b828201905092915050565b610a1f81610517565b82525050565b6000819050919050565b6000610a4a610a45610a40846104f7565b610a25565b6104f7565b9050919050565b6000610a5c82610a2f565b9050919050565b6000610a6e82610a51565b9050919050565b610a7e81610a63565b82525050565b600082825260208201905092915050565b6000610aa082610547565b610aaa8185610a84565b9350610aba818560208601610563565b610ac381610596565b840191505092915050565b600060a082019050610ae36000830188610a16565b610af06020830187610a75565b610afd60408301866104a1565b8181036060830152610b0f8185610a95565b9050610b1e60808301846104a1565b969550505050505056fea2646970667358221220813a11f99f99352947de0711c92d15d3e5ae0c392ff88e400d477436a8fd861b64736f6c63430008090033",
    "linkReferences": {},
    "deployedLinkReferences": {}
}